:1000000000300020C1000000371A00001327000054
:1000100000000000000000000000000000000000E0
:100020000000000000000000000000001527000094
:100030000000000000000000172700001927000042
:100040001B2700001B2700001B2700001B270000A8
:100050001B2700001B2700001B2700001B27000098
:100060001B2700001B2700001B2700001B27000088
:100070001B2700001B2700001B270000ED080000C5
:100080001B2700001B270000A50500001B27000000
:100090001B2700001B2700001B2700001B27000058
:1000A0001B2700001B2700001B2700001B27000048
:1000B0001B2700001B2700001B2700001B27000038
:1000C0000749084A084B9B1A05DD002408591051BE
:1000D00004349C42FADB054880470548004700008D
:1000E00060EC0000C0F0FF1FB0FBFF1F1D270000E9
:0800F000710400000000000093
:10040000FFFFFFFFFFFFFFFFFFFFFFFFFEFFFFFFFD
:1004100010B5064C2378002B07D1054B002B02D0DA
:10042000044800E000BF0123237010BDB0FBFF1F94
:100430000000000054EC0000084B10B5002B03D066
:100440000749084800E000BF07480368002B00D1B7
:1004500010BD064B002BFBD09847F9E700000000C9
:10046000B4FBFF1F54EC0000B0FBFF1F00000000B6
:10047000164B002B00D1144B9D46402292029A1A33
:10048000924600218B460F461348144A121A04F074
:1004900065FB0F4B002B00D098470E4B002B00D074
:1004A00098470020002104000D000D48002802D0CC
:1004B0000C4801F098FB04F0A1F92000290001F09C
:1004C00033FE01F08DFBC046000008000030002024
:1004D0000000000019210000B0FBFF1F7C09002074
:1004E000E71B00000000000080220E4B1201C10734
:1004F00010D55A608022D20081070DD55A60802223
:10050000920041070AD55A6080225200010707D5A0
:100510005A6070479A60EDE79A60F0E79A60F3E7F7
:100520009A60F6E740F00F40F8231349134A9B0105
:10053000885870B503438B50A0218023104A11487E
:100540005B004900516580251365436343649360F4
:10055000D36013615361F0220B4B0C4C196259624A
:100560009962D9620A4BAD031201656100205A619C
:10057000FFF7BAFFA56070BD00700440381000009E
:1005800000D0044000B0044000A0044000F10F403F
:1005900040F00F40024B18698006000F7047C046BC
:1005A00000F10F408022124B1968114202D01968E5
:1005B0000A431A600F4A1021128892B21A610E4A39
:1005C000128892B29A6180220C4B5A600C4B7F3A8F
:1005D0001A800C4BDA688A43DA604D221A600A4BA3
:1005E0001A68013202D01A6801321A607047C04698
:1005F00000900340E2FFFF1FE4FFFF1FC0F00F4029
:10060000CEFBFF1F00B00340F4FFFF1F10B50D4BE2
:100610000C1C01280BD098680AF03EFD211C0AF042
:100620000FFA09F0B3FD084B80B2188010BD98682E
:100630000AF032FD211C0AF003FA09F0A7FD034B72
:1006400080B2F2E700900340E2FFFF1FE4FFFF1FCC
:10065000F8B5174B0500081C1C680CF00BFB0022BA
:10066000144B0AF05FFD0022134B0BF09FFC134B61
:1006700006000F001868211C0AF002FB0CF0FAFAC1
:1006800002000B00300039000BF090FC0600201C2B
:100690000F000CF0EFFA02000B00300039000AF0F6
:1006A00041FD0CF039FB011C2800FFF7AFFFF8BD3E
:1006B000FCFFFF1F0000F03F0000E03FF8FFFF1FBE
:1006C000802370B52F4C151C2F4A0E1CA158DB003F
:1006D0000B43A3502D4B291C1D6009F0C1FF2C4B6F
:1006E000291C1860301C09F0BBFF2A4A2A4B2B49F1
:1006F0001860A35800260B408021A350284B4902C4
:10070000E0580143E150E15826480140E150802182
:10071000E05849040143E1508023A1589B040B4356
:10072000A350214C230008332660DE670623236094
:1007300022683A33134323601C4B186880090AF07F
:10074000ABFC291C0AF07CF909F020FD00252823C8
:10075000A060291CE36030006361FFF779FF291C6A
:100760000120FFF775FF08232268134380222360CE
:100770000F4BD2021A60C0220E4B92001A605A60D0
:1007800070BDC0460070044038100000000000201A
:10079000FCFFFF1F3C100000F8FFFF1FFFFFFFFDE5
:1007A00004100000FFFFFFFC00900340E0F1FF1F7A
:1007B00000E100E000A00440F7B54021026A802477
:1007C0008A430262426A35398A4342620722030041
:1007D000416A0A434262426A224342621A682242E2
:1007E000FCD040225D6A012015402AD1D96C9A6C58
:1007F000586C8A1884461F6C6244DE6BD219986B61
:10080000921912180F4992B252080A4392B2DA6250
:10081000DA6E986E009284465F6E1E6ED86D9A6D89
:100820000192009A6244D719BE19019A30188018B3
:1008300080B240080143280089B219635A6AA24372
:100840005A62FEBD0080FFFF0B7883604B78C36067
:100850004B8883618B88C3618B790362CB79436258
:100860000B7A03604B7A436070470000802330B5F9
:100870001349144A1B05885885B003438B506A46B8
:100880005423002513704D3B5370083B53800E4C8E
:1008900059339371543BD37169465B332000137213
:1008A0000395FFF7D1FF2000FFF786FF6A46182364
:1008B000694620009371D571FFF7C6FF05B030BDC2
:1008C000007004403C10000000B0034010B5FFF77A
:1008D000CDFF0022034B1A808022034B12021A60C4
:1008E00010BDC046CEFBFF1F00E100E04A4BF0B553
:1008F00018880138032803D809F0EEF905132039C8
:10090000464B1B69F0BD454A4548116989B20180D3
:100910001020D1688143D1604C21116002221A80DD
:10092000F0E73E4A3E48116989B241801021D06803
:100930000143D160442111600322F0E7374A39486E
:10094000116989B2018002203749486037497E30F9
:1009500088600021364801703648017004311980E2
:100960001023D1680B43D36046231360CAE7304A93
:1009700011787F2926DC2F49284B087800280CD1D4
:1009800010782D4A400012681218186980B2108041
:1009900047221A6001230B70B4E7284814780068D6
:1009A000640000191C69A4B204804620186000236A
:1009B0000B7013780133DBB2137002221A4B9A606A
:1009C0005A609FE702210026174A1B4D5160916033
:1009D0001B491E800F78194C1A4A1B4B1B48B74203
:1009E00010D101360E70511CFF312960591CFF31A6
:1009F00021600260164A1360164A13780133DBB295
:100A000013707FE72A6001322360FF3201330E70DA
:100A10000260FF33EEE7C046CEFBFF1F00B003408D
:100A2000DEFFFF1FCCFBFF1F00F10F40C0F00F40A7
:100A3000D1FBFF1FD0FBFF1FD4FDFF1FD8FFFF1FFF
:100A4000DCFFFF1FD2FBFF1FD8FDFF1FE8FFFF1FCA
:100A5000ECFFFF1FF0FFFF1FC0231949194A9B013C
:100A6000885830B503438B50A023174A5B0053606E
:100A7000164A8024D3610023022553619361144AEE
:100A800051692143516113494869284348618D6088
:100A90009460114A11491370137811481B02CB1846
:100AA000036013780F4A10481B02D318036001310A
:100AB0000E4BFF31196001320D4BFF321A6030BD11
:100AC000007004403810000000D0044000C0044012
:100AD000C0F00F4000F10F40DCFFFF1FD2FBFF1FF3
:100AE000D4FDFF1FD8FDFF1FD8FFFF1FE8FFFF1F2A
:100AF000ECFFFF1FF8B50D1CFE218905061C09F04F
:100B0000E7FA00284ED12A49301C09F0CDFA002816
:100B100000D0274EFE21281C890509F0D9FA0028AB
:100B200043D12349281C09F0BFFA002800D0204DEA
:100B3000301C0CF09FF800221E4B0AF0F3FA002242
:100B40001D4B0BF033FA0CF0E7F81C4C061CA768A1
:100B500038000AF0A1FA011C301C09F071FF09F0FD
:100B600015FB80B22062236A281CA3620CF082F875
:100B70000022104B0AF0D6FA00220F4B0BF016FAA7
:100B80000CF0CAF8A668051C30000AF085FA011CB2
:100B9000281C09F055FF09F0F9FA80B22061236999
:100BA000A361F8BDFE26B605B4E7FE25AD05BFE797
:100BB000000080BF0000F03F0000E03F00800340E5
:100BC00080211E4B1E4A70B5051C985849020143EE
:100BD000995099581B481C4C0140995080219858B5
:100BE000490408439850194A9858014399502200E3
:100BF000002308322360D3672360154B1868400830
:100C00000AF04AFA291C09F02BFD09F0BFFA282244
:100C1000A06024230020E260011C6361E261636242
:100C2000FFF768FF08232268134380222360094BE3
:100C3000D2005A609A60DA601A6170BD0070044098
:100C400004100000FFFFFFFC008003403C10000088
:100C5000E0F1FF1F00B0044010B5FFF765FCFFF79F
:100C600035FEFFF7F9FE064A06490748FFF728FD5B
:100C70000022064B06481A60FFF7A2FF10BDC046CF
:100C80000AD7233C6F12033B6F12033AF4FFFF1F96
:100C900000007A4510B50B4B002810D1188880B29F
:100CA0000AF0FAF90BF0E6FF0022074B0AF04AFDC2
:100CB0000022064B0AF036FA0CF02EF810BD5888C8
:100CC000EDE7C046DEFFFF1F00FE9FC00000F03FC3
:100CD00010B50400074B036001F0B8FF2000636B00
:100CE0002830002B01D09B689847200001F008FFB6
:100CF000200010BD18DF000010B50400064B036093
:100D0000064B30300360064B436002F0E1FE2000EA
:100D100002F0A0F9200010BD98DF0000B8DF00004D
:100D200018E0000008B4024B9C46303808BC60470D
:100D3000F90C000008B4024B9C46343808BC6047EC
:100D4000F90C000010B50400FFF7C2FF200040219D
:100D500002F034FF200010BD10B50400FFF7CCFFF7
:100D600020004C2102F02AFF200010BD08B4024BE5
:100D70009C46303808BC6047590D000008B4024B4F
:100D80009C46343808BC6047590D0000962337B59F
:100D9000124C9B010093042200230821200002F042
:100DA0001BF80F4D0F492A00200000F017FF0E4CD2
:100DB000200001F07DFE20000C4B10220021283085
:100DC000236003F0CBFE2300012238331A70084958
:100DD0002A00200000F002FF37BDC04604000020BA
:100DE000C0F0FF1FF90C00006000002018DF0000B9
:100DF000D10C0000064B802210B51C680023054969
:100E00005200E0180088C85202339342F9D110BD55
:100E1000E8FFFF1FB0020020F7B5002300918B21EF
:100E2000214AC9051360214A07001160204A0025A4
:100E300013600300FC33841E01931E4A63881288EA
:100E4000934201DD1B4A13801B4A63881288934238
:100E500001DA194A1380002D16D178880AF01CF99E
:100E6000061C60880AF018F9011C301C09F008FF04
:100E7000FC21890509F0E4FD009BAA00013598508A
:100E80000234802DD9D1F7BD7F2D06D160880AF0BC
:100E900003F9019B061C1888E4E7A0880AF0FCF817
:100EA000061C2088DEE7C046DC070020D8F0FF1FC4
:100EB000C4070020B2030020C8F0FF1F0A4B10B582
:100EC00018880A4B1B88C01A0AF096F8084909F0DE
:100ED000C7FB084B186080231B06C218064B1A601C
:100EE000064B186010BDC046B2030020C8F0FF1FBB
:100EF00000002041C4F0FF1FCCF0FF1FD0F0FF1F07
:100F0000F0B5544C544BA544002425001C80534B91
:100F1000534E1C80534B02901B680093524B1B682E
:100F20000193029B00991F59381C09F0C7F800284B
:100F30005DD028000AF060F806AB18510199381C02
:100F400009F0C6F8002855D028000AF055F880228C
:100F500006AB92009B18185101350434802DE0D166
:100F6000002426002500049402940594039401941F
:100F7000009406ABE7583A49381C09F08FF8009BFB
:100F800000283DD10133280000930AF035F8391CC0
:100F900009F0D4F90AF010F8050086ABE75830499B
:100FA000381C09F07BF8019B00283ED1013330004A
:100FB00001930AF021F8391C09F0C0F909F0FCFF8F
:100FC0000600802304349B009C42D2D1059B002B59
:100FD00003D06A46214B92891A80049B002B03D0D0
:100FE0006A461D4B12891A80204B9D44F0BD06AB0A
:100FF0001E51A3E7802206AB92009B181E51ABE75F
:10100000002BCAD0029B009928009F0008F0F8FE30
:1010100009F0F2FF164B0025F850029B00950133B2
:101020009BB2029301230493B7E7002BC9D0039B23
:10103000019930009F0008F0E3FE09F0DDFF0D4B41
:101040000026F850039B019601339BB203930123C2
:101050000593B6E7E4FBFFFFE0070020E20700206E
:1010600000009643CCF0FF1FD0F0FF1F1C040000CF
:10107000B8030020B8050020BC4BF7B51A78BC4B6C
:10108000BC4D1A700022B94BBB4C1A70BB4B1B688D
:1010900001932B60BA4B1B880093002B2DD1238822
:1010A000002B08D1B14A06331370B64B019A1A606F
:1010B000B54B009A1A60B04B1C88009B012C00D0E5
:1010C00084E0002B00D01BE1A84A04331370A94C24
:1010D000AD4B009AAD491A60AA4B2268AC4D1A601C
:1010E000AC4B186809F02AF9291C061C08F0F0FF1F
:1010F000002800D068E02660F7BD009B012BDAD104
:101100002388012B45D1A44B1E68A24B301C1F68BD
:10111000391C09F0B5FD8021C905051C08F0E2FF66
:10112000994C00280AD09D49281C08F0C7FF0028C8
:1011300004D00023019A2360924B1A60311C381CA2
:1011400009F09EFD8321C905071C08F0CBFF874EDF
:10115000884D002814D09249381C08F0AFFF0028B1
:101160000ED0904B1B88322B03DD8F4A136801335E
:101170001360019B2B6002233370002323609AE7E6
:10118000002333702368013323607E4B1B682B6080
:1011900091E7002B14D10322744900270A707A4A80
:1011A0007A491360774B019A1A607B4B186809F0F3
:1011B00067FD391C061C08F077FF002802D12E605D
:1011C0002488A3E02F6076E7256095E7022B00D006
:1011D00099E0022C00D08FE76F4D6E4E2C6831687D
:1011E000201C09F04DFD8321C905071C08F07AFF7A
:1011F00000283ED06D49381C08F060FF002838D028
:1012000076686868311C09F03BFD051C0BF032FD67
:10121000674A684B08F02CFF00282AD06349281C35
:1012200008F04CFF002824D0211C301C09F028FDB8
:10123000041C0BF01FFD604A604B08F019FF0028EA
:1012400017D05F49201C08F039FF002811D0554BFA
:101250001B88322B03DD544A136801331360454B5E
:10126000019A1A600223414A13700022464B1A6009
:1012700042E700233D4A1370434A13680133136069
:10128000404B1A683B4B1A6036E70135AC4244DCF0
:10129000364B1A78052A00D12EE700221A70EBE7A8
:1012A000012C00D028E7009B012B00DC24E7002460
:1012B000384B1D68384AA3009E58291C301C09F081
:1012C000DFFC8021C905071C08F00CFF002812D0A4
:1012D0003249381C08F0F2FE00280CD00523234ABE
:1012E000244C13700022284B291C1A60254B2268BD
:1012F000301C1A6031E0009B01349C42DADBC7E706
:10130000009B022BD3D0009B012BC9D1012C00DC08
:10131000F2E60025204B1B6800931E4AAB009E5846
:101320000098311C09F0ACFC8021C905071C08F0AD
:10133000D9FE0028A9D01949381C08F0BFFE0028A2
:10134000A3D00523094A0B4C137000220E4B0098C2
:101350001A600C4B2268311C1A6008F0EFFFFC2168
:10136000890509F06DFB206092E7C046AC000020C3
:10137000B0030020D8070020E0070020D4F0FF1FB2
:10138000E2070020CC070020C00700200000E0405A
:101390000000FE42B8030020B805002000007041A4
:1013A0000000C841EA070020BC07002000008D4271
:1013B000CDCCCCCCCCCC22409A99999999991D400E
:1013C00000005E42F8B51A4B00241968194B1868E2
:1013D00009F056FC184F061C386809F0EDFD174B54
:1013E000211C1860301C08F05FFE154D00280CD041
:1013F000144B211C2B60301C08F06AFE002801D021
:10140000114B2B602B683B60F8BD211C301C08F091
:101410005FFE0028F4D1211C301C08F03FFE00289C
:10142000F0D00A4B1B78062BECD12C60EAE7C046C3
:10143000D8070020D4F0FF1FA8000020D00700200C
:10144000B80700207B14AEBE7B14AE3EAC0000207B
:10145000D0B50E4C20680BF00DFC0D4A0D4B06006C
:101460000F0008F005FE002806D00B4B2360216812
:101470000020FFF7EDF8D0BD054A084B30003900D9
:1014800008F0E2FD0028F2D0054BEFE7A8000020AD
:10149000C3F5285C8FC2D53F7B14AE3E8FC2D5BF4B
:1014A0007B14AEBE0A4B10B51B78022B0AD1094B38
:1014B0001B78002B06D0084B1B68002B02DD002296
:1014C000064B1A70FFF77EFFFFF7C2FF10BDC04644
:1014D000AC000020E8070020BC070020C80700205F
:1014E000F8B50020FFF7D6FB384B041C1860384BCA
:1014F00000211F68381C08F0D7FD00283AD0354974
:10150000381C08F0E5FD00282DD03349201C09F0D7
:1015100097FA3249051C201C09F092FA0021061C9A
:10152000381C08F0D5FD00282AD12D4B1B78002B44
:1015300009D12C4B1B78002B05D12B49201C09F01D
:101540007FFA051C061C281C284909F089F880230D
:101550001B06C018264B25491860301C09F080F87E
:10156000244B1860F8BD0021201C09F069FA2249BB
:10157000051CD0E70021381C08F0AAFD002817D070
:101580001E49381C08F090FD00280AD01349201C81
:1015900009F056FA1049051C201C09F051FA061CE6
:1015A000C3E71549201C09F04BFA0021051CF3E79D
:1015B0000021381C08F072FD0028B6D01049201C0C
:1015C00009F03EFA051C061CAFE7C046B403002034
:1015D000E4070020000040C2000048C30000C843E8
:1015E000AC000020B00300200000A0C20000C842F0
:1015F000A0000020A400002000009643000040420C
:101600000000164310B5224C2378002B0FD1214A3D
:10161000126992040BD5012222701F4A13601F4ADF
:1016200013601F4A11681F4A11801F4A13602378F4
:10163000002B07D0174B1B699B0303D50023174AC8
:1016400023701360194B1B78002B07D0124B1B68BB
:10165000282B03DD0023114A237013602378002B0D
:1016600007D10021081CFFF745FA8022104B920396
:101670009A602378002B09D080220D4B92035A6088
:101680000C4B19680C4B1868FFF734FA10BDC046B4
:10169000C807002080F00F40C0070020BC070020D2
:1016A00050000020EA070020D4070020C9070020CE
:1016B00000F10F40A0000020A400002030B58021E0
:1016C00080248022164B24011878C9000138154B5C
:1016D000920005281DD880256D0008F0FDFA0D0F39
:1016E000030817135C6099609A609D6030BD9C6030
:1016F00099609A605D60F9E75C60F9E79C60596009
:101700005A60F2E75C6059605A60F3E75C60996088
:10171000F6E79C6099609A60802252009A60E5E743
:10172000AC00002040F00F4030B5802180248022A2
:1017300008380F4B2401C9009200032811D88025D6
:101740005C606D00996008F0C7FA0205080A9A60AB
:101750009D6030BD9A605D60FBE75A60F8E75A60B3
:10176000F9E79C6099609A60802252009A60F0E7E5
:1017700040F00F40002370B50F4A104C5D1C7F2BCA
:1017800010D012685B00D3181A880D4992B220005D
:1017900002F0B0F92B00802DEED10A49200002F0B2
:1017A000A9F970BD13680849FE331A88200092B267
:1017B00002F0A0F9F1E7C046E8FFFF1F3400002067
:1017C00074DA000092E0000079DA000010B5FFF74B
:1017D00011FB0A4C0A482100FFF71EFBFFF76EFBC6
:1017E0002000FFF78DFBFFF747FCFFF75BFEFFF7DD
:1017F00065FFFFF775FEFFF705FF10BDB000002085
:10180000B002002010B5FEF7C5FE0838072814D82E
:1018100008F062FA04080C0E13131310FFF7AAFF66
:10182000082000E00920FFF77FFF10BD0A20FAE73B
:101830000B20F8E7FFF7CAFFF2E7024803F0ECF9E4
:10184000F3E7C0467CDA0000E12110B54902044804
:1018500001F04AFBFFF700FAFFF7D4FFFCE7C046B0
:101860000400002010B5054C200001F077F9044A6F
:101870000449200000F0B2F910BDC046F007002076
:10188000C0F0FF1F192B000010B50400431C04D149
:1018900015220649064801F0F7FA2000012100F060
:1018A00049FC01206406E40EA04010BD8CDB000062
:1018B00079DB000070B505000C0029804B1C0FD0AF
:1018C0000800FFF7E1FF074B240BE418A401231DD8
:1018D000EB6004332B611434083368606B61AC60D7
:1018E00070BDC046C03FE00310B50023C05E00F0ED
:1018F0004FFC10BD0022835E70B504000D00013363
:1019000004D1332209490A4801F0BEFA002D02D061
:10191000012D06D070BDA268616813688B43136007
:10192000F8E7A268616813680B43F8E78CDB0000F6
:1019300074DB00000022835E70B504000D000133EB
:1019400004D124220549064801F09EFA6368002D5F
:1019500002D0E268136070BD2269FBE7F8DB00008B
:1019600074DB0000F0B587B001F044FF164968460B
:1019700001F04BF996250126042431006846FFF753
:10198000D9FF280001F011FF00216846FFF7D2FFC0
:10199000013C280001F009FF002CEED1C8270434D7
:1019A0007F0031006846FFF7C5FF380001F0FDFEFB
:1019B00000216846FFF7BEFF013C380001F0F5FE4C
:1019C000002CEED1D8E7C0464810000070B50D00DD
:1019D0000400A0B001F00EFF2B0022008021684619
:1019E00004F078FF051E03DC01F01AFF20B070BD83
:1019F000094B0A4E1B68002B04D104220821300039
:101A000000F030FD00246B463000195D013400F019
:101A100072FEA542F7D1E7E7380800204C09002004
:101A20000FB407B504A901C90191FFF7CFFF03B0B7
:101A300008BC04B018477FB51021684601F0CBF808
:101A400007B000BD0020704710B5036801221B6974
:101A50000021984710BD002210B5036811001B69D2
:101A6000984710BD10B503681B69984710BD10B5A5
:101A700003689B69984710BD10B503689B6A984737
:101A800010BD0020814200D11938704701207047F5
:101A90001120704770471D20404270471620404279
:101AA00070470120704700207047704770B51500DF
:101AB0000C008E18B44205D02178034800F01BFEBC
:101AC0000134F7E7280070BD4C09002070B58DB2D5
:101AD0000024EB0705D5084800F0EAFD441EA041AC
:101AE00004B21026354205D0034800F0F8FD002866
:101AF00000D03443200070BD4C09002010B5040014
:101B000002F02AFF200010BD002010B50C00824218
:101B100004D0034800F0D8FD2070012010BDC0465D
:101B20004C09002070B51D00084B04000833036009
:101B3000074B1B68002B07D1064E300000F092FCCB
:101B40002900300000F0A8FB200070BD5CDC000024
:101B5000380800204C090020002070470020704702
:101B600010B5012000F03CF80C4910B50B681818AE
:101B7000EFF30882904205D30C220120084B40422B
:101B80001A6010BD074A1468002C04D0064A126877
:101B900012199042F0D208601800F2E7DCF1FF1F42
:101BA00078090020200800202408002070B50A4C85
:101BB00005002368986802F04DF92368D86802F0A0
:101BC00049F901F0DFFD002801D001F0F5FD002DFD
:101BD00001D0FFF7C7FEFEE7ECF1FF1F01207047C1
:101BE00010B5FFF7E3FF0120704710B5002103F0A7
:101BF000C1F810BD7047704710B5FFF7FBFF10BD6F
:101C000010B5FFF7F8FF10BD032210B503780400EC
:101C100013400020012B0BD0834204D0054A064913
:101C2000064801F031F90223012022781343237082
:101C300010BDC046A9050000ACDC000003DD0000BB
:101C4000032210B5037804001340022B04D0064A87
:101C50000649074801F018F90322237893431A0034
:101C600001231343237010BDB1050000ACDC00005C
:101C700029DD0000F8B5040000203F2C19DC184EC7
:101C8000A500A859431C14D1022C12DC2000FFF738
:101C900065FF00280CD12000FFF75EFF002807D168
:101CA000104F3B78BFF35B8F0F4CDB0702D5200052
:101CB0007051F8BD3800FFF7A7FF0028F7D0962332
:101CC00004229B0108212000FFF72CFF3800FFF7BA
:101CD000B7FF064A06492000FFF780FFE7E7C04646
:101CE000DCF0FF1F100800201C080020C0F0FF1FC0
:101CF000AB1A000070B50400FFF7BCFFA30000247E
:101D00000B4A9C50A04206D101F05CFF09230360FE
:101D10000120404270BD03685B69984705002000C0
:101D2000002DF7DA01F04EFF6D420560F0E7C04686
:101D3000DCF0FF1F10B5FFF7DDFF10BD70B50C0024
:101D40001500FFF797FF002807D101F03BFF09239B
:101D5000036001246442200070BD03682100DB6839
:101D60002A009847041EF6DA01F02CFF6442046052
:101D7000EFE710B5002A06DA01F024FF162303600E
:101D8000173B180010BD131EFBD0FFF7D7FF031E33
:101D9000F7DA01235B42F4E770B50C001500FFF79A
:101DA00069FF002807D101F00DFF0923036001241A
:101DB0006442200070BD036821009B682A00984798
:101DC000041EF6DA01F0FEFE64420460EFE710B58F
:101DD000002A06DA01F0F6FE1623036001204042D5
:101DE00010BDFFF7D9FFFBE710B5FFF743FF041E57
:101DF00005D101F0E7FE09230360200010BD036850
:101E0000DB699847041EF8DA01F0DCFE64420460E6
:101E10000024F2E730B585B00190092040230D0081
:101E200002AC042201A96844237002F005FE2000E0
:101E3000290002F057F9041E07D00198FFF7D4FFDC
:101E4000002802D02000FFF7D0FE200005B030BDF2
:101E500010B5FFF7C9FF10BD70B50C001500FFF7F6
:101E600009FF002807D101F0ADFE0923036001241A
:101E70006442200070BD036821001B692A00984756
:101E8000041EF6DA01F09EFE64420460EFE710B52E
:101E9000FFF7E2FF10BD70B50D00FFF7EBFE041E6B
:101EA00006D101F08FFE092303600120404270BD7E
:101EB0000368DB6998478023002808D11B026B6008
:101EC000236820009B6A984728610020EFE79B0168
:101ED000F5E710B5FFF7DFFF10BD10B502F03CFDD0
:101EE00010BD0000030004CB10B50400002A00D18F
:101EF000036022689A4204D066220349034800F036
:101F0000C3FF206810BDC0462BDC000045DC00008C
:101F100070B50A4C05002000FFF7E4FF0023802184
:101F20001800074A49009E58AE4200D19850043329
:101F30008B42F8D12000FFF7D5FF70BD14080020B8
:101F4000DCF0FF1F70B503240E4D2800FFF7CAFF19
:101F50000D4BA200D15800290CD00134402CF8D1EF
:101F600001F030FE182303602800FFF7BBFF413C5F
:101F7000200070BD012128004942D150FFF7B2FF77
:101F8000F6E7C04614080020DCF0FF1F10B504007F
:101F9000FFF7D8FF002802DB014A83009C5010BDE8
:101FA000DCF0FF1FF8B506000F00FFF7EFFF04009D
:101FB000051E0AD03900FFF72DFF051E05D1064B7F
:101FC000A400E258964202D1E0502800F8BD01F08A
:101FD000F9FD09230360F8E7DCF0FF1F0EB4F0B54C
:101FE00086B00500FFF7AEFF041E13DB00232900B7
:101FF00004A8039301F066FB04A801F0BEFBA50052
:10200000071E1B4E0CD101F0DDFD13230360775139
:1020100001246442200006B0F0BC08BC03B018479D
:1020200004A801F094FB0090030004A8002B05D045
:1020300001F097FB0390039B7351EBE701F07BFBEF
:10204000071EE0D0036804A89B68019301F066FBBB
:102050000B9B020003A93800019FB847071EEAD076
:1020600001F0B0FD009B7F4207607351D0E7C0468E
:10207000DCF0FF1F73B50E001849040002F0A2FF48
:10208000051E03D1FFF7F6FD280076BD1449200098
:1020900002F098FF002804D10130FFF7EBFD012585
:1020A000F2E71049200002F08DFF002804D1023031
:1020B000FFF7E0FD0225E7E72378402B06D1611CFE
:1020C000042201A802F0B8FC019DDDE706492000CA
:1020D0003140FFF783FF0500D6E7C04670DD000002
:1020E00077DD000068DD0000FF7FFFFF704770476D
:1020F00070470000064A0749936830B51800CC1AAB
:10210000C0301D68E55004338342FAD1916030BD80
:1021100000ED00E000F0FF1F10B5FFF7EBFFFFF749
:10212000E6FFFFF7E5FF10BD10B5FFF7DFFFFFF794
:102130008BFB10BDF8B505000C00431C04D1142224
:102140000D490E4800F0A0FE280B070001230937B7
:10215000BB400B490B4A24028E5833438B500A4B29
:102160000A4AC0187C2300031D404019036813402D
:102170001C430460F8BDC0467FDD000079DB000031
:10218000007004403810000049000400FFF8FFFF11
:1021900070B504000D00431C04D1212205490648F6
:1021A00000F072FE054BE41803232168994329438C
:1021B000216070BD7FDD000079DB000000900440ED
:1021C0003F2100200E4A10B513788B4383420FD174
:1021D0000C490D4B58580D49000F09680130484310
:1021E00051790B4A490604D499580A4C2140995018
:1021F00010BD80219C584902214399504008F7E7BF
:10220000004006404410000000700440E0F1FF1F51
:1022100004100000FFFFFEFF70B50A4D8C000600A1
:10222000605900280DD073B2002B03DA064B012150
:102230001B689847B30604D5034B00211B68285937
:10224000984770BD2C0800202808002010B5034BCB
:1022500001211879C0B2FFF7DFFF10BD00B00640C2
:1022600010B5034B02211879C0B2FFF7D5FF10BD9E
:1022700000C0064010B5074C00212079C0B2FFF71E
:10228000CBFF082322791A4202D02279134323710B
:1022900010BDC04600A00640F7B50D000C21036834
:1022A0000600DC780C400194DA788A43DA70414AFF
:1022B000934200D073E0FFF783FF002814D0FFF7AC
:1022C0007FFF290107F012FD1F253268030A1178EC
:1022D0002B40A9430B431370C0B253785070D3788E
:1022E000019C1C43D470F7BD334B344AD758344B50
:1022F0003F0F1A683F2301375743324A9C461178F3
:1023000099431300802953D064461178A143D8D152
:10231000517949063AD49279D206D2D419785A78AA
:10232000890694460122490F8A40302061460142C5
:1023300003D0FF21520149010A401F21DB788B4362
:10234000602B1AD007D8202B0ED0402B13D0002B97
:102350001AD1A02106E0A02B12D0C02B12D0802BC6
:1023600012D1B721890001E0A021C9007A431000F1
:1023700007F0BCFCA5E7F021F7E7A0210901F5E78C
:10238000B721F2E71049F1E71049EFE71F23107971
:10239000517918400130194078431831E8E7064B6D
:1023A000064AD158064B4903490F01311868DFE747
:1023B000380086E700A0064044100000007004408A
:1023C000E0F1FF1F0040064095080000710B00007F
:1023D000F7B5013B0700019115000093012B04D9CB
:1023E000A6221C491C4800F04FFD022D04D9A7224B
:1023F00018491A4800F048FD019B082B04D0A82278
:102400001449174800F040FD0C203A68D178D37881
:1024100001408343D370012D15D0002D13D0022D20
:1024200014D0202064002643F6B2967013788343BC
:102430001370009B10785B010343DBB21370D378F9
:102440001943D170F7BD2E002C00EAE700260124C5
:10245000E7E7C046E9DD000064DE000089DE000039
:10246000D3DE0000F8B50E0004004D49300017001F
:1024700000F062FC4B490500380000F05DFC0100F3
:10248000280000F035FC0500431C04D141224649D8
:10249000464800F0F9FC464B25609D4200D16CE0B7
:1024A000444B9D4200D170E0434B9D4210D1FFF759
:1024B00087FE424B424A00285BD080219858C904CD
:1024C0000143995080223F49D200585802435A5044
:1024D0000C212368DA788A43DA700822D9780A4313
:1024E000DA70402219791142FCD00C21DA788A4343
:1024F000DA702F4B9D424ED02E4B9D424DD02E4B2D
:102500009D4201D100236360962120008901FFF7DD
:10251000C3FE0123002208212000FFF759FF2049B4
:10252000300000F0C3FB1F49380000F0BFFB731CF4
:1025300008D0082322683000D1780B43D3700221E1
:10254000FFF726FE7B1C08D0042322683800D178D0
:102550000B43D3700221FFF71BFE174B9D4207D19F
:102560000122194B21001A601848073202F064FA60
:10257000F8BD802198580905A2E780230F49114A28
:102580001B01885803438B50A2E780230B490D4A57
:102590005B018858F6E70123B5E70223B3E7C0469D
:1025A00008DB00009CDA0000E9DD0000E2DE00004C
:1025B00000B0064000C0064000A006400070044085
:1025C0000410000034100000380800204C090020DE
:1025D000034B1960436803499B005A507047C0463B
:1025E000280800202C0800200368284810B58342E2
:1025F00018D02748834218D02648834218D10C208F
:10260000254C002A1FD0002915D0012918D0234BB2
:102610009A68030010339B009C5001238340204A9A
:10262000136010BD1F4C0D20EBE71F4C0E20E8E798
:1026300000242000E5E72022D9780A43DA70E6E793
:10264000DA788021F9E7002904D001290BD000298C
:1026500004D00CE02021DA788A43DA70DB785BB2B0
:10266000DB43DB0F07E07F21DA780A40DA70DA78A3
:10267000012352099343002BD3D0012383400B4AFB
:10268000D367BFF34F8FBFF36F8FCAE700B0064029
:1026900000C0064000A006407522000000ED00E0EA
:1026A00000E100E04D2200006122000004E100E0B2
:1026B000082203681979114202D019790A431A7164
:1026C000187920231840704710B504002000FFF748
:1026D000EFFF0028FAD02368D879C0B210BD0822D5
:1026E00003681979114202D019790A431A711879CD
:1026F0007F239843704770B505000C002800FFF752
:10270000EEFF0028FAD02B68E4B2DC7170BD000047
:10271000FEE7FEE7FEE7FEE7FEE7FEE78822002091
:102720001F4B520110B5985080221E4992005C58F0
:1027300022435A501C491D4A1D4C99501D4B996CFF
:1027400021409964DA6C1F212240DA6489221A4BF5
:102750001A701A4B653A5A7076321A70DA780A4053
:10276000DA7001221A7158710F3299791142FCD135
:102770000C219A790A40082AFBD10C2138325A716F
:102780009A790A40082AFBD1383299791142FCD053
:102790001A220C211A709A790A400C2AFBD110BD1A
:1027A00000700440381000000000011044100000C8
:1027B000FFF8FFFE00900440005006400040064035
:1027C0000022064B1A609860196840320A431A606A
:1027D000012219680A431A607047C046000004408D
:1027E00080220F4B70B519680E4D0A431A602C6891
:1027F000002C05D00C48013CFFF7E2FF2C6070BDB7
:102800000A4D2888002803D0FFF7DAFF2C80F6E76E
:1028100001211A688A431A6000F0A8FAEFE7C0465F
:102820000000044040080020FFFF00004408002092
:1028300000487047F4DE0000014B9869C0437047C0
:10284000FC7003404021024A13688B4313607047B9
:1028500000000440694BF7B51F78002F02D0FFF746
:10286000F1FFF7BD01241C708023654D654A1B04F0
:10287000A958654E0B43AB50644B1F6001235B426C
:1028800073610533F361F3692343F361604B1B68A4
:102890000193604B0198E9580723090C1940091965
:1028A00007F024FA5C4B5D49C01807F01FFA5C4A38
:1028B00001387060F460AB585A492343AB505A4A10
:1028C0005A4B17609B681700B03319608021584B32
:1028D000490519603F214F4BEE58019B360F554D6E
:1028E00036195E432B788B43802B33D02B788B4368
:1028F00064D16B795B0653D4AB79DB065ED40722D7
:102900002B786978DB08134029329C40114203D0B0
:10291000FF2364015B011C401F22EB789343602B73
:1029200035D007D8202B0ED0402B2ED0002B35D100
:10293000A02106E0A02B2DD0C02B2DD0802B2DD197
:10294000B721890001E0A021C9002000704307F0F1
:10295000CDF90600002E31D03049300007F04CFA96
:102960000C1E2BD12D49300007F0C0F90723012898
:1029700042D021000123400801281AD17823C90040
:102980001940753B194379606BE7F021DCE7A02122
:102990000901DAE7B721D7E72749D6E72749D4E77E
:1029A0001F23287969791840013019407043183184
:1029B000CDE7184202D101314008DDE702232A7831
:1029C00013432B7001236A7813436B7000230E228C
:1029D0007B602B7A13400AD0022B0CD02B7A9343C6
:1029E0002B7204232A7A1A432A727A6801E0082398
:1029F0007A68134300E07B687B6032E73C08002084
:102A0000007004403C100000FC7003400070034064
:102A1000E0F1FF1F4410000020A1070040420F001A
:102A200038100000E12700000000044000ED00E045
:102A300000E100E00040064095080000710B000036
:102A4000704700000B4B70B59B690B4DDB430B4E81
:102A5000C01A040C80B22C603080002C05D00848CD
:102A6000013CFFF7ADFE2C6070BDFFF7A9FE34807E
:102A7000FAE7C046FC7003404008002044080020EC
:102A8000FFFF00000023044A1360044A13808022E1
:102A9000034B52055A60704740080020440800204C
:102AA000FCE100E0704710B503689B68984710BDD3
:102AB000094B10B508330022036000238260C36015
:102AC000002303614361040000F04CF90349A06155
:102AD00000F060FD200010BDFCDE0000A72A000011
:102AE00007B5010000900831806900F094FD07BD32
:102AF000010010B50831806900F0B6FD10BD00007E
:102B000010B50400034B08330360FFF7F1FF20000A
:102B100010BDC046FCDE000010B5040000F06AFEE7
:102B20002368002B04D0237F002B01D000F08EF906
:102B30000023236000F074FE200010BD10B50400D7
:102B400000F058FEA06900F0A9FD00220023A0605B
:102B5000E1602261636100F063FE10BD002310B5E7
:102B60000022036000238260C360026143610400AD
:102B700000F0F8F80123A06123772000FFF7DEFFC3
:102B8000200010BD0022835E70B504000D000133EB
:102B900004D124220549064800F076F96368002D27
:102BA00002D0E268136070BD2269FBE7F8DB000029
:102BB00074DB000070B50D0004001600FEF77AFE0D
:102BC0006B1C07D000212000FEF794FE310020008E
:102BD000FEF78AFE70BD10B50222FFF7EBFF10BDB5
:102BE00070B50D0004001600FEF764FE6B1C0BD0E0
:102BF00031002000FFF7C6FF01212000FEF77AFE1A
:102C000000212000FEF770FE70BD10B50022FFF716
:102C1000E7FF10BD10B58268C3680400416A006A0E
:102C200012184B412000FFF75BFF636B002B03D0B2
:102C300020001B682830984710BDC36810B50400F9
:102C4000002B01D09B689847200010BD7FB5050080
:102C500000F0D0FD2800FFF74BFF6B6B002B04D07A
:102C60002B0038331B78002B1DD12E006C462836E4
:102C700010220021684601F071FFA6420DD03000FD
:102C8000FFF7DBFF002E08D0039B002B03D05B680F
:102C9000694630009847E3686B632000FFF7CDFF7B
:102CA00000F0BEFD7FBD00F0D1F8DEE713B50400F3
:102CB000431C0CD113BD9C4208D120008968FFF74A
:102CC00039FA00212000FFF763FAF3E70C31002204
:102CD0008B5E5A1CEFD10023220000930249034867
:102CE00000F0A0FAE6E7C04655DF000030010180A1
:102CF00007B5020088420BD0431C09D04B1C09D0F9
:102D0000002305490093054800F08CFA012149424F
:102D100008000EBD0100FBE724DF00003001018048
:102D200000228B5E5A1C01D1180002E0834201D1BF
:102D3000486870470C31F3E713B50400431C0BD00F
:102D4000FFF7EEFF0400431C06D1002302000093AE
:102D50000249034800F066FA200016BD35DF000086
:102D6000300101800048704768DF0000034B10B558
:102D70001B68002B01D00248984710BDE4F1FF1FEB
:102D800068DF00007047000008B4024B9C463038F2
:102D900008BC6047852D000008B4024B9C463038C3
:102DA00008BC6047852D000010B500F0ADF810BDDF
:102DB00008B4024B9C46303808BC6047A92D00007F
:102DC00010B500F0A6F810BD08B4024B9C46303890
:102DD00008BC6047C12D000070B504001D00049BB5
:102DE00000F0B2F820002900303000F045FE054B1D
:102DF00020001A00083222601A0088332832226329
:102E0000636370BD90DF000013B500F0F3FC0B4C62
:102E10000B4B22889A4209D100F002FD0023228840
:102E200008490093084800F0FDF913BD0121200076
:102E300000F006FD00F0F4FCF7E7C046880800202B
:102E4000FFFF000020E000002301048037B500F000
:102E5000D1FC0A4C2588002D09D100F0E1FC228824
:102E60002B0000950649074800F0DCF937BD012129
:102E7000200000F0F2FC00F0D3FCF7E78808002007
:102E800045E000002401048070B50D001600040028
:102E900000F0B0FC33002A0021000348FEF7C0FD1B
:102EA000FEF760FD70BDC04663E0000070477047EC
:102EB00070B50C0125000C354519EB68002B0CD0C2
:102EC0000419A369002B04D1044A05490548FFF7FA
:102ED000DBFFA36928001B68984770BD390200001A
:102EE00094E00000AAE0000070B504000D00036843
:102EF0001B6898472900201DFFF7CEF92368E5627B
:102F00005B682000984770BD10B50430FFF7DCFB0C
:102F100010BD10B50C000430FFF7EDFB200010BD14
:102F200070B504000D0088420CD0FFF786FE002C1F
:102F300008D0EB68002B03D05B682900200098477D
:102F4000EB68E360200070BDF0B5040007000025C9
:102F5000260089B003931F4B0C370833036001919F
:102F600002924560856029001C361022380001F06D
:102F7000F5FD29001022300001F0F0FD039B102226
:102F8000E362290004A801F0E9FD04A93800FFF775
:102F9000C7FF04A8FFF751FE1022290004A801F082
:102FA000DDFD04A93000FFF7BBFF251D04A8FFF7D6
:102FB00044FE029A01992800FFF754FAE16A2800BA
:102FC000FFF76AF9280022000349FFF701FB200000
:102FD00009B0F0BDB0E00000B12E0000F0B5050072
:102FE0000F001600036887B01B68984700F002FCCA
:102FF0002B1D34010193FB680C342C19002B15D0C8
:10300000E368002B01D1FFF7FFFE39002000FFF736
:1030100087FF01223100281DFFF7E6FA00F000FCCF
:103020002B6828005B68984707B0F0BDE368002B69
:1030300001D0FFF70BFF1022002102A801F08EFD46
:1030400002A92000FFF76CFF02A8FFF7F6FD00229F
:10305000E0E700007FB504002600164B102208337D
:1030600003600021684601F079FD002269462000D6
:10307000FFF7B4FF6846FFF7E0FD10220021684625
:1030800001F06CFD012269462000FFF7A7FF0C3616
:103090006846FFF7D2FD002E08D025002C35B5423A
:1030A00004D0103D2800FFF7C8FDF8E7200004B069
:1030B00070BDC046B0E0000010B50400FFF7CAFFC5
:1030C0002000FEF70AFF200010BD0000F0B591B00F
:1030D000060001911700002800DB184E184C2378D9
:1030E000012B00D1FEE700F085FB0123237000F0E7
:1030F00097FB144D34222B680021013303A82B6069
:1031000001F02CFD019B039605932B680497012B7E
:1031100004D1342203A90C4801F08EFC0B4D34225B
:1031200003A9280001F088FC094B1B68002B01D083
:10313000280098470020207011B0F0BD0101FF80E9
:10314000940800208C08002098080020CC0800205B
:103150009008002073B5244C060021684B009B0F9B
:103160008DB2032B00D14D420B142048DBB22A0054
:10317000FEF756FC28003238FF38072809D8A16826
:1031800006F0AAFD042426282A2E2C301848FEF723
:1031900047FC3000FEF744FC61681648FEF740FC2F
:1031A000A1681548FEF73CFCE36914480193A36944
:1031B000009363692269E168FEF732FC21681048D8
:1031C000FEF72EFC0F48FEF72BFC73BD0E48DEE722
:1031D0000E48DCE70E48DAE70E48D8E70E48D6E797
:1031E0000E48D4E70E48D2E7CC080020C8E0000023
:1031F00019E10000A6E10000B6E10000C9E100000D
:1032000018E2000064E200002EE100003DE1000051
:103210004BE100005DE1000070E1000083E100008F
:1032200091E1000010B50C0011007246FFF74EFF4F
:1032300000280FD12000FFF78DFF00F0D4FA0028FE
:1032400003D100F0CBFA002801D130BFFDE7012007
:10325000FEF7C6FC004810BD0F01FF80F0B54668C0
:1032600087B033003A331B7804000493002B4AD113
:1032700003685B68984763681B6A984243D0336A67
:10328000F268C31A1A40B36814000393039A354BCB
:10329000049D30629A4230D033003B331F78314A6C
:1032A000002320002900002F38D006F045FF3A0007
:1032B0000090019106F090FE009A019B04000D0021
:1032C000B06AF16A12184B41200000920193290064
:1032D0003A0006F08DFE009A019B121A8B41009273
:1032E00001930499019B039899420ED1009B984247
:1032F0000BD9009A019BB262F362326B736B1219A5
:103300006B413263736307B0F0BD01220023A41840
:103310005D41009A019B121A8B41ECE706F00CFF0D
:10332000039B01970093009A019B0490059106F07E
:10333000E3FE009A019B04000D000498059906F035
:10334000DBFEB06AF16A12184B410199994202D131
:1033500000999142CFD80120002124184D410098B6
:103360000199D8E740420F000300824206D90120AC
:103370008A4202D9994280414042704700208B42E4
:10338000FBD991424041F8E7F7B5466805003300A4
:103390003A331B78002B45D1330039331B78002B8F
:1033A00040D1FFF75BFF6C686168002954D0226B45
:1033B000636B08684968994206D801D1904203D8E6
:1033C0002B685B6998472DE0801A9941E36927696A
:1033D0008B420CD302D1A369834208D3A368019323
:1033E000019A224B9A421ED1874200D90700236AD4
:1033F000FF18E3681F40336ABB4205D108221C490D
:10340000FF321C48FFF740FD2B6838001B699847C6
:103410002B685B6898473A000100306AFFF7A4FF09
:103420000028CDD1F7BD23003B331B789C46002BF1
:103430000BD01A0006F0DCFD00230F4A801859411A
:103440000A4A002306F058FECEE702000B0001985E
:10345000614606F071FEEFE7336A3269F0689B1847
:1034600018402B681B699847DCE7C04640420F00B4
:103470007EE20000D0E200003F420F004368F0B55A
:103480001A003832127887B00400002A79D13A3312
:103490001B78002B75D103681B6898472368DB698C
:1034A000984705680600002D05D12C22364937487B
:1034B000FFF7EAFC364D1F230122D9B20391110018
:1034C0009940A94203D0013B002BF6D103937368C6
:1034D0000193043B1C2B06D93A222B492B48FFF7BA
:1034E000D3FC202301930722019B0027043B9A4031
:1034F0000292D1170023264A029806F01DFE2E00E4
:1035000002000B0001204042C11780197941801848
:1035100059412A003B0006F0EFFD00236768049044
:1035200005913B607B6023685B689847002200231D
:10353000386267680120BA62FB626A463B00127B10
:103540003B33BD6000211A70019A06F051FD029BC9
:1035500001383B61049A059BBA61FB61002200239C
:103560003A637B633B003933F8601A7000225A706B
:103570000123383720003B70FFF770FE2000FFF773
:1035800003FF07B0F0BDC0467EE200004FE300003D
:1035900040420F0070B504000D00FFF76FFF00F010
:1035A00029F963681D6000F03BF970BD10B5040097
:1035B00000F020F92368DB68984763681A003A3204
:1035C0001278002A02D000F02BF910BD0122393305
:1035D0001A7063685B68002B15D02000FFF73EFE71
:1035E00063685A68596B506888420CD803D11168D7
:1035F000186B814207D8D16859601B68002BE8D04E
:1036000090689847E5E700226368200039331A7014
:10361000FFF7BAFED7E7F8B505000C0017001E004B
:1036200000F0E8F82800FFF719FE0022069B696801
:10363000A3604B6827606660002B09D1E360002A15
:1036400010D14C602800FFF79FFE00F0E9F8F8BDAC
:103650005868B042F2D802D11868B842EED81A00C1
:10366000DB68E9E7D460F0E770B505000C0000F016
:10367000C1F86A685368A34208D1DB682800536028
:10368000FFF782FE00F0CCF870BD1300002BF9D0DC
:10369000DA689442F9D1E268DA60F3E710B5040021
:1036A000FFF7ECFE00F0A6F82000FFF7D7FD00F0D2
:1036B000B7F86368186B596B10BD10B5FFF7EEFFD4
:1036C00010BD000070B50E000025040005604560C7
:1036D0000F49300001F0ECFC3618266023681A7898
:1036E0002F2A0FD101332360002D04D1292209494B
:1036F0000948FFF7C9FB2900300000F01BF96060A2
:10370000200070BD002AEFD0013301352360E5E7CA
:10371000F4E20000F6E2000048E3000000687047B1
:10372000436810B5181E05D000F0A4F801384342D4
:103730005841C0B210BD10B50400FFF7F1FF031EE1
:1037400003D06268131E00D0131F180010BD436819
:1037500010B5181E04D000F08DF843425841C0B295
:1037600010BD10B50400FFF7F2FF031E03D062681E
:10377000131E00D0131F180010BD4068431E98414F
:10378000C0B2704710B500F023F810BD70B5050049
:10379000FFF7E8FA0400FFF790FF06002000FFF7AC
:1037A0008CFF801BA842F9D370BDFA2310B59B0093
:1037B0005843FFF7EBFF10BD30B585B06D461824B8
:1037C000201C291CABBE041C200005B030BD00002D
:1037D000014B18687047C046E8F1FF1FEFF31083F4
:1037E000012098437047EFF30580431E9841C0B213
:1037F0007047000010B5074C2368013304D15122F3
:1038000005490648FFF740FB00F090F923680133B3
:10381000236010BD0009002051E30000A6E3000072
:10382000064B10B51A68002A07D01A68013A1A60C8
:103830001B68002B01D100F08BF910BD000900209E
:1038400070B505000C00FFF7D5FF29880C19A4B24C
:103850002C80FFF7E5FF200070BD70B505000E005D
:10386000FFF7C8FF2C88A41BA4B22C80FFF7D8FF59
:10387000200070BD007B70470D4B70B508330360AE
:10388000040000230B4E4360A160027330000D0062
:10389000FEF728FB002D08D0074B1A681C606260F9
:1038A0003000FEF71FFB200070BD6560F8E7C046E2
:1038B000E0E30000080900200409002070B50400BE
:1038C000134B144D083303602800FEF70BFBA3686D
:1038D000002B05D0104A13689C4213D16368136013
:1038E0000E4B1A68944201D100221A602800FEF79C
:1038F000F9FA237B002B02D1201FFEF709FB2000E1
:1039000070BD13005A689442FBD162685A60E7E7C1
:10391000E0E300000809002004090020100900204D
:1039200010B50400FFF7CAFF2000FEF7D6FA20000A
:1039300010BD0000F8B5174D070028000E00FEF777
:10394000D1FA154B1C68002C11D0A06800281ED09D
:1039500001F07CFBB0421AD132003900A06801F0BE
:1039600045F8002813D12800FEF7BCFA0DE0072E19
:10397000F9D132003900094801F038F80028F2D1B5
:103980002800FEF7AFFA064B1C682000F8BD6468FB
:10399000D9E7C0460809002004090020D7E3000049
:1039A000100900200020704770477047F8B50E00DE
:1039B000036805001B6D8C1898473300A34208D09C
:1039C0005F1C19782B6828009B6C9847431C06D114
:1039D0003C002B6828005B6D9847A01BF8BD3B009E
:1039E000ECE7F8B50E00036805001B6D8F18340076
:1039F0009847A74208D02B682800DB6C9847431CE7
:103A000002D020700134F4E72B6828005B6D9847E2
:103A1000A01BF8BD002070477047002070470020B1
:103A20007047000010B50400044B0360044B0430E1
:103A30000360FFF743FF200010BDC046F8E300001D
:103A400048E4000008B4024B9C46043808BC6047B8
:103A5000253A000010B50400FFF7E4FF2000FEF750
:103A60003CFA200010BD08B4024B9C46043808BC48
:103A70006047C046553A000013B504000F4B0022C2
:103A800008C0FFF7F9FE0E4B0E491A006833636059
:103A900000230832226063612000FEF783FA606130
:103AA000002803D0FEF7A1F8200016BD0090030007
:103AB000020005490548FFF7B5FBF5E758E50000AA
:103AC00068E4000050E4000053E4000019010180A4
:103AD000074B10B51A0004000832683302604360D7
:103AE000406900F0DBF82000FFF79CFF200010BDCC
:103AF00068E400000EB477B50400036807AD40CD5C
:103B00001B6D98476069019500F0A4F93100019A96
:103B1000606902F055FE0500236820005B6D984740
:103B200028007EBC08BC03B018470000EFF31083E8
:103B3000DB4372B6044A1178002904D101310348ED
:103B40000B40037011707047150900201409002004
:103B500010B5EFF31083DB0704D43522064907487C
:103B6000FFF792F90022064B1A70064B1B7893421E
:103B700000D062B610BDC046D8E4000034E50000B5
:103B80001509002014090020036870B51B69012283
:103B9000002104009847051E0DDB236802221B69E3
:103BA0000021200098470600236829001B69002295
:103BB000200098473500280070BD000010B5FEF7C2
:103BC0008CF910BD014B18687047C046ECF1FF1F1F
:103BD00070B505000C1E40D0002802D0836B002B6E
:103BE0003ED00126636E334233D1A3899B0543D572
:103BF0002100280000F05CF8E36A0600002B04D0E6
:103C0000E16928009847002844DBA3891B062AD4D1
:103C1000216B002908D023004033994202D02800AC
:103C200009F036F900232363616C002904D02800D1
:103C300009F02EF90023636400F0EEF90023A3815C
:103C4000636EDB0714D5A06D00F0FEFD00F0ECF90B
:103C500004E00C22A35E002BCAD10026300070BD08
:103C600000F054F9BDE72169280009F011F9CFE708
:103C7000A06D00F0EDFDE6E7A06D00F0E7FD0C2281
:103C8000A35E002BB4D1636E1E40E6D1A06D00F0A0
:103C9000DFFDE3E701267642B7E7C04610B5034BE8
:103CA00001001868FFF794FF10BDC046ECF1FF1F3C
:103CB000F0B5C64600B50C23CA5E804693B20C0030
:103CC000190740D480231B0113436268A381002A93
:103CD00000DC70E0A66A002E31D0424641461568ED
:103CE00000229BB20A60DA0400D469E0226D5B070F
:103CF00006D56368D21A236B002B01D0E36BD21A6E
:103D00000023E1694046B047431C3DD0A3893A4AAD
:103D100013400022626022691BB2A3812260DB048F
:103D200047D44346216B1D60002908D0230040334F
:103D3000994202D0404609F0ABF8002323630020EB
:103D400004BC9046F0BD2669002EF8D0226826609B
:103D5000951B00229B0700D16269A260002D04DC44
:103D6000EDE736182D1A002DE9DD2B003200E16950
:103D70004046676AB8470028F3DC40220120A38947
:103D800040421343A381DBE7434619681D29F4D859
:103D90001A4B0122CB409A43EFD1A389164E6260A1
:103DA000334022691BB2A3812260DB04B9D500290C
:103DB000B7D12065B5E7E26B002A00DD8AE7BEE7F0
:103DC00000220123E1694046B0470200431C02D0B3
:103DD000A389A66A8BE743461B68002BF8D01D2BEE
:103DE00001D0162B03D1434600201D60A8E74021D7
:103DF000A3890B43A381A3E7FFF7FFFF0100402046
:103E000070B505000C00002802D0836B002B16D083
:103E10000C22A35E0026002B0FD0626ED20701D4C5
:103E20009B0513D521002800FFF742FF636E0600B3
:103E3000DB0702D4A3899B0504D5300070BD00F0D8
:103E400065F8E5E7A06D00F003FDF6E7A06D00F072
:103E5000FDFCE7E710B5011E04D0054B1868FFF71D
:103E6000CFFF10BD034B0449186800F0A1FCF8E730
:103E7000ECF1FF1FA0E50000013E000010B5024973
:103E800000F096FC10BDC046D13B0000002310B5E9
:103E9000040003604360836081814366C2810361E3
:103EA00043618361082200215C3000F057FE20004E
:103EB000064BE4612362064B58306362054BA362F4
:103EC000054BE36200F0BEFC10BDC046294F000068
:103ED000514F00008D4F0000B94F000070B56824AD
:103EE0004A1E54430E002100743108F0C9FF051E1C
:103EF00009D000232200036046600C30A8606832BD
:103F0000002100F02BFE280070BDC04670B50400F3
:103F1000144D280000F09AFCA36B002B1DD1124A0F
:103F20000421E263B8229200A350B92303229B002C
:103F3000E2500833E218043BE25060680022FFF7C9
:103F4000A5FF01220921A068FFF7A0FF022212218C
:103F5000E068FFF79BFF0123A363280000F078FCD3
:103F600070BDC046600900207D3E0000F8B5284EB7
:103F70000700300000F06AFC264B1D68AB6B002B7D
:103F800034D0B8239B009C4665446B68AC68013B09
:103F900003D526E06834013B23D30C21625E002A5E
:103FA000F8D10123002520005B42E3810233A38185
:103FB0005830656600F046FC300000F049FC2000F7
:103FC0002560A560656025616561A5610822002105
:103FD0005C3000F0C3FD256365636564A564200063
:103FE000F8BD2868002805D00500CEE72800FFF7B7
:103FF0008DFFC6E704213800FFF770FF2860002816
:10400000F2D1300000F024FC0C2300243B60E6E7F2
:1040100074090020A0E5000010B5024800F016FC6D
:1040200010BDC0467409002010B5024800F010FC15
:1040300010BDC04674090020F0B583B00F00110018
:1040400001AA050003F0B2FD061E36D02800FFF7D6
:104050008DFF041E31D0DB2339005B00019A28005C
:1040600000F0C6FD071E1FDB636EDB0715D5194B7D
:10407000E7812362184BA6816362184BE461A36257
:10408000174BE362F3051AD4636EDB0702D4A389EE
:104090009B051BD5200003B0F0BDA3899B05E6D48A
:1040A000A06D00F0D3FBE2E7FFF7B6FF0023A06DA1
:1040B000A38100F0C9FBFFF7B7FF0024EAE7022362
:1040C00000222100280000F019F8DDE7A06D00F0C3
:1040D000BFFBDFE7294F0000514F00008D4F00006C
:1040E000B94F000010B5044B0A001B68010018000E
:1040F000FFF7A2FF10BDC046ECF1FF1F10B500F0A6
:1041000001F810BDF0B545465746DE464E46E0B5CF
:104110000C0091B0050090461F00002803D0836B6F
:10412000002B00D1C9E0636EDB0727D4A3899A0571
:1041300021D5842252001340934225D0A36A994688
:10414000002B29D0012F00D1A0E0022F30D0002F6A
:104150002ED016232B60636EDB0702D4A3899B0548
:1041600022D501256D42280011B03CBC90469946ED
:10417000A246AB46F0BDA06D00F068FB8422A38987
:10418000520013409342D9D121002800FFF738FE96
:10419000A36A9946002BD5D11D332B60636EDB07D4
:1041A000DFD4A3899B05DCD4A06D00F051FBD8E7D8
:1041B0000022002693462369002B00D1FAE00C234D
:1041C000E25E9C4993B20B4255D18021C9008A46D8
:1041D0000B4248D0C246002F00D0DAE05B46002BED
:1041E00000D0C5E0A389DB0400D4FEE0206D626846
:1041F000216B1300861A002900D100E1E36B9B4676
:10420000F61A2069A36BB6181B1A9C46F61A5B4671
:104210006344B2457ADBF218524577D95246961B71
:1042200080199B1B20606360002908D02300403365
:10423000994202D0280008F02BFE0023236320229D
:10424000A3899343A381183A2000012500215C3003
:1042500000F084FC636E1D4003D1A3899B0500D44C
:10426000A4E000257FE7744B994500D1A7E08023A7
:104270001B011A43A28121002800FFF7C1FD00287D
:1042800027D0636EDB0700D468E76AE721002800C7
:10429000FFF7B6FDA389DA0471D5266D5A070FD44E
:1042A0001B0714D522682369002A01D0D21AB61838
:1042B0000122B044934600277EE7FFF727FE32E74E
:1042C0006368F61A236B002B01D0E36BF61A23699F
:1042D000EEE73B004246E1692800C847431CD0D0C6
:1042E000216B002908D023004033994202D02800D6
:1042F00008F0CEFD002323632369504A2360002386
:104300006360A3891340A38108229DE7E36CE16900
:104310005E4253461E40320000232800C847431C1B
:10432000A9D00023216B636023692360002908D092
:1043300023004033994202D0280008F0A9FD002351
:1043400023632022A3899343A38153469E1BDBD082
:104350002100280000F080FC00288CD163689E4278
:1043600089D8226892199E1B2260666008226BE73A
:10437000216B002942D0E36B62689B4641E7012331
:104380000022E1692800C8470600431C3ED0A389EB
:1043900084E70E23E15E01AA280000F051F800280E
:1043A00000D068E7059B43449A4617E7A06D00F0EC
:1043B0004FFAD8E62100280000F07CFAFFE60E2331
:1043C000E15E002900DA52E701AA280000F038F87F
:1043D000002807D1F022029B120213408022120211
:1043E000934220D00C23E25E41E701230022E169E1
:1043F0002800C847431C00D0F9E63CE76368206901
:1044000022680021121AB61AD31802E7636E3B42E3
:1044100000D0A6E6A3899B0500D5A2E6A06D00F01A
:1044200017FA35009FE653465246E364A3891343C7
:10443000A381CFE61A0800008D4F0000DFF7FFFFD1
:10444000002370B5074C0500080011002360FDF73C
:1044500040FD431C00D070BD2368002BFBD02B60B7
:10446000F9E7C04678090020F0B54E46DE465746CB
:104470004546E0B5936883B000900C001600002B11
:1044800025D08B891A072AD50A69002A27D03268D5
:1044900093469A072FD5B24B002700259846B14680
:1044A000002D00D172E02B00454500D9AC4B3A00FD
:1044B000E1690098666AB047002800DC73E04B466B
:1044C0009B683F182D1A181A4B469860E8D10020B7
:1044D00003B03CBC90469946A246AB46F0BD2100D5
:1044E000009802F079FA002800D030E13268A38900
:1044F00093469A07CFD4DA075DD5002300209A4669
:1045000000271D00B14629E0002833D0A846BD424F
:1045100000D9B8462068226946466369904207D9A7
:10452000A26894469C4462460192E04500DDE9E0C1
:10453000984500DA8FE0666A5246E1690098B04714
:10454000061E30DDAD1B0120002D26D04B469B689A
:10455000B244BF1B9E1B4B469E60B8D0002FD3D1E8
:104560005B461B689A465B465F6808239C46E344AB
:10457000002FF5D03A000A21504600F0F7F9002844
:1045800000D1E2E053460130C51ABFE75B461F6821
:104590005D6808239C46E34482E721000098FFF70A
:1045A0002FFC0028D2D00C22A35E4022012013430E
:1045B000A38140428CE7002291464D46002D23D036
:1045C000A268904680229200134226D0C2464545FA
:1045D0004DD39022D20013424ED12F002068524674
:1045E000494600F06BFA4246A368981A2368A06017
:1045F00053442360B368B944ED1BDF1BB76000D19F
:1046000065E7A389002DDBD15A46126891465A46C8
:10461000556808229446E344D0E72068236998420D
:1046200002D86769BD4259D24746AF4200D92F0030
:104630003A00494600F042FAA3682268DB1BD2190F
:10464000A3602260002BD5D121000098FFF7D8FB92
:104650000028CFD0A7E74246514600F02FFA424645
:10466000A3689B1AA3602368434423606AE7A846B3
:1046700020682F00AA46B2E721692268521A9246A2
:1046800062695700BF18FA0FD7195246501C7F10A5
:1046900040193A00B84201D9070002005B0542D533
:1046A0001100009808F0ECFB8046031E52D05246E1
:1046B000216900F0C1F9A3892A4A134080221343DB
:1046C000A381434640462361534650446761FF1A25
:1046D000A7602060A8462F00AA4680E7224B28004A
:1046E0009D4200D91800390005F08AFB3B004A467C
:1046F0004343E1690098676AB847002800DC52E745
:10470000070077E76646514600F0D8F9B4462368BB
:104710002100634423600098FFF772FB002800D05B
:1047200041E7019E0EE7009808F0AEFB80460028A6
:10473000C7D1009D2169280008F0AAFB8022A38927
:104740009343743A1BB22A602FE77D1CDEE60120FA
:104750004042BDE6009A0C3313600C22A35E24E7AE
:1047600000FCFF7F7FFBFFFFFFFFFF7FB823F0B55B
:10477000C6469B00C71800B588460026002F13D0F8
:104780007B68BC685D1E0CD4A389012B06D90E2260
:10479000A35E013302D02000C04706436834013DC8
:1047A000F2D23F68002FEBD1300004BC9046F0BD40
:1047B000F8B54746CE4680B5B8278046BF00474487
:1047C00089460026002F14D07B68BC685D1E0DD47E
:1047D000A389012B07D90E22A35E013303D0210048
:1047E0004046C84706436834013DF1D23F68002F78
:1047F000EAD130000CBC90469946F8BD70B50D4E1C
:104800000D4D0024AD1BAD1005D0A300F3580134AD
:104810009847A542F9D109F021F9084E084D002426
:10482000AD1BAD1005D0A300F35801349847A54245
:10483000F9D170BD98FBFF1F98FBFF1F98FBFF1F6E
:10484000A4FBFF1F7047C0467047C0467047C04674
:104850007047C04670B50C001E000E23C95E90B0B4
:104860001500002915DB01AAFFF7EAFD002810DB7F
:10487000F022029B120213400D4A802094466344AA
:104880005A42534133608023DB002B60000110B09B
:1048900070BD00233360A3891B0603D5402300208D
:1048A0002B60F4E78023DB002B600020EFE7C0469D
:1048B00000E0FFFF70B58B8982B006000C009B07FB
:1048C00007D523004333236023610123636102B0D2
:1048D00070BD01AB6A46FFF7BDFF009905003000CF
:1048E00008F0CEFA00281ED08022154BF363A3896E
:1048F00020601343009A1BB26261019AA381206178
:10490000002A02D12B43A381E1E70E23E15E3000B0
:1049100003F09AF9002810D00322A38993430122BF
:1049200013431BB2EEE70C22A35E9A05CFD40322F9
:10493000934302221343A381C3E70C22A35EE1E762
:104940007D3E000010B5034B0100186808F098FA8E
:1049500010BDC046ECF1FF1F10B5034B01001868F5
:1049600008F096FA10BDC046ECF1FF1F70B5CDB24D
:10497000830734D0541E002A1BD00378AB4219D0D1
:10498000032204E0013C14D30378AB4212D001307F
:104990001042F7D1032C0ED8002C0AD00378AB427A
:1049A00008D0041902E00378AB4203D001308442FE
:1049B000F9D1002070BDFF220B061B0C11401943DA
:1049C0000B04084E19430368074A4B409A189A4350
:1049D0003242E3D1043C0430032CF4D8DCE7140069
:1049E000D8E7C04680808080FFFEFEFE10B5032A17
:1049F0001CD903000B439B070FD003780C78821857
:104A0000A34204D015E003780C78A34211D1013001
:104A100001318242F7D1002010BD03680C68A34227
:104A2000EBD1043A04300431032AF6D8002AE4D149
:104A3000F1E7181BF0E7C046F0B505000F2A2FD9A3
:104A40000B0003439B0734D116000C000300103EFB
:104A5000350901352D01451927681F6067685F60BA
:104A6000A7689F60E7681034DF6010339D42F3D180
:104A70000F239E431036851989191340032B1AD929
:104A80001E1F0023B4080134A400CF58EF50043394
:104A9000A342FAD10324A643331D2240C918ED18BE
:104AA000002A05D00023CC5CEC5401339342FAD1A8
:104AB000F0BD0500F6E71A00F2E7C046F0B58842FF
:104AC0000AD98B18984207D2531E002A03D0CA5C19
:104AD000C254013BFBD2F0BD05000F2A08D8002AC2
:104AE000F9D00023CC5CEC5401339342FAD1F2E7C5
:104AF0000B0003439B072DD115000C000300103D54
:104B00002F0901373F01C71926681E6066685E607D
:104B1000A6689E60E6681034DE6010339F42F3D1D1
:104B20000F24A5431035491914404519032C13D9F6
:104B30000023271FBE080136B600CC58EC500433C2
:104B4000B342FAD10326B7433C1D09192D1932404F
:104B5000C7D1C0E70500C4E72200C0E7F0B583076E
:104B600043D0541E002A3FD0CEB20200032502E0FB
:104B70001A00013C38D3531C16702B42F8D1032C79
:104B80002AD9FF220A40150215432A0415430F2C87
:104B900014D927001A00103F3E09013636019E192C
:104BA000156055609560D56010329642F8D10F229D
:104BB00097431037DB191440032C0DD91A00271F17
:104BC000BE080136B6009E1920C2B242FCD10322B3
:104BD00097430437DB191440002C05D0C9B21C19C7
:104BE000197001339C42FBD1F0BD14000300C6E7ED
:104BF00070B50500080011000022064C22601A0062
:104C0000FDF738FA431C00D070BD2368002BFBD0A1
:104C10002B60F9E7780900200FB400B5064983B08E
:104C200004AB086804CB8168019300F05DFA03B01F
:104C300008BC04B01847C046ECF1FF1F092310B5AB
:104C4000828913400022092B01D0100010BDFFF70C
:104C500001F90200F9E7C046F8B505000C0000288C
:104C600002D0836B002B4CD080210C22A35E8901E3
:104C70009AB20A4206D10B433B4A616EA3810A40B5
:104C800062669AB200216160910637D4510725D53A
:104C9000216B00290CD023004033994202D0280018
:104CA00008F0F6F800232363E36B6360002B42D126
:104CB0002369002B4FD00C23E75EBEB2B30723D18C
:104CC00023692800236022696369E169256AA8478E
:104CD000030060600020002B09DDF8BDD1063FD540
:104CE000082616422BD104221343A381E0E7002BB0
:104CF0001BD0A389606040221343A381012040425E
:104D0000EBE7FFF703F9AFE70123A381174B18493E
:104D10001868FFF72BFD0923A7811E40092ECFD16C
:104D200021002800FEF7C4FFCAE72022A38901382A
:104D30001343A381D1E7A36B00202360CDE72100BB
:104D40002800FFF75DF80028D8D1A389A060B343FD
:104D50001BB2A061C7E721002800FFF7ABFDAAE75F
:104D600009222A60C7E7C046FFDFFFFFA0E5000079
:104D70003D4C00004A424A41802310B55200DB00FE
:104D800000F002F810BDC046F0B54746CE4680B5EB
:104D90001F00634B83B01D68040088461600002D79
:104DA00002D0AB6B002B66D0022E05D0012E00D9AD
:104DB000A1E0002F00DA9EE0636EDB0733D521000F
:104DC0002800FFF71DF8216B002908D0230040338D
:104DD000994202D0280008F05BF8002323630023E7
:104DE000A36163600C22A35E1A063DD44D4A1340B2
:104DF000A381022E1ED001AB6A4621002800FFF7D6
:104E000029FDA3891843A081002F38D1009F3800C5
:104E1000FFF798FD8046002800D16FE08022A3892B
:104E20001343A3812EE0A3899B05C8D4A06DFFF78F
:104E30000DFDC4E70025022213430022A2602200D8
:104E40004332226022610122616EA38162611142BC
:104E500004D19B0502D4A06DFFF7FAFC280003B033
:104E60000CBC90469946F0BD2169280008F010F866
:104E70000C22A35EBAE72800FFF748F894E7434600
:104E8000002BC4D0AB6B002B27D0009B9F422AD0B5
:104E90008023A2891B0113431BB2A381012E26D0BC
:104EA00042462260226108229BB267611A400BD001
:104EB000DA0710D500220125A260626E7F42A76149
:104EC0001540C6D00025C9E7A2600125626E1540D5
:104ED000BFD00025C2E7A760F7E72800FFF716F864
:104EE000009B9F42D4D10C22A35E012ED8D1012277
:104EF0001343A381D4E701256D42AFE7009B994698
:104F0000BB4205D01800FFF71DFD8046002804D1E4
:104F100001250C22A35E6D428DE74F467EE7C04619
:104F2000ECF1FF1F5CF3FFFF70B50C000E25495F2D
:104F300003F02CFA002803DB236D1B18236570BDDA
:104F4000A389024A1340A381F9E7C046FFEFFFFFA0
:104F5000F8B516001F000C228B5E05000C00DA0568
:104F600007D50E23C95E0022022302F09DFE0C220B
:104F7000A35E054A28001340A38132000E23E15EA0
:104F80003B0001F015FDF8BDFFEFFFFF70B50C0011
:104F90000E25495F02F088FE431C06D08023A289BB
:104FA0005B011343A381206570BDA389014A1340AF
:104FB000A381F9E7FFEFFFFF10B50E23C95E01F0F3
:104FC00075FD10BD024670B50A4392072AD11E4DE9
:104FD000EE0104C808C9541B9443344017D0D0B222
:104FE000D9B2401A2106014310D190B299B2401AA9
:104FF000210401430AD110021902000A090A401AC9
:105000002102014302D1100E190E401A70BD9A42BE
:10501000DFD010BA19BA884201D9012070BD002032
:10502000C04370BD02780B7801300131002A09D0ED
:105030009A4207D102780B7801300131002A01D061
:105040009A42EFD0D01A70BD0101010110B583075B
:1050500025D00378002B24D00300032102E01A7826
:10506000002A1AD001330B42F9D119680E4A0F4CAD
:105070008A188A43224206D1043319680A4A8A18D8
:105080008A432242F8D01A001B78002B03D0013249
:1050900011780029FBD1101A10BD181AFCE7030083
:1050A000E3E70020F8E7C046FFFEFEFE8080808038
:1050B00070B50478002C14D005000E78002E09D0AD
:1050C000A64209D00B0001E0A24205D001331A78B4
:1050D000002AF9D1281A70BD01352C78002CEDD1A9
:1050E000F8E70020F7E7C046F0B5DE464E464546F5
:1050F0005746E0B5C3B0894614001D000F93060063
:10510000069002F0C3FD036818001893FFF79EFF96
:105110001790002E04D0B36B0793002B00D1A7E0AB
:105120004B465B6EDB0778D44B460C21595E8BB245
:105130009A056ED580229201134209D10A434B464B
:1051400049469A81496ECC4B0B4049464B6693B217
:105150001A0767D54A461269002A63D01A221A40F4
:105160000A2A00D188E032AB25930023CB4625AF35
:10517000BB607B60079414931693159332AE19931A
:105180001A930A93079C2378002B01D100F09EFD0F
:10519000252B03D100F09AFD252B03D00134237871
:1051A000002BF9D1079BE51A10D0079B756033607F
:1051B000BB685B19BB607B6801337B60072B4CDCF1
:1051C00008360A9B9C46AC4463460A932378002B1E
:1051D00001D100F099FC631C0793002316AAD37732
:1051E00001225242924600220B92203291462032F6
:1051F00063780021002000249446079A0132079228
:105200001A00203A582A00D9E7E29C4D9200AA5889
:1052100097464B46986DFFF719FB4B460C21595E9C
:105220008BB287E74946069801F0D6FB4B4600282B
:105230003AD05B6EDB0705D44B469B899B0501D4B6
:1052400000F0CFFF01235B420A930A9843B03CBCB5
:1052500090469946A246AB46F0BD3A00594606989C
:1052600004F0EEFB002801D000F0CEFC32AEA8E73F
:105270000698FEF74BFE53E74A460E21525E002A7F
:1052800000DA70E74A46526ED20705D49B0503D474
:105290004B46986DFFF7DCFA2B0022004946069832
:1052A00001F09AFA0A90D0E79B8957E70B9B0F927F
:1052B0005B420B9304231C43079B1B789DE7079BD2
:1052C00001211B782B2098E7079B5A1C1B789046DE
:1052D0002A2B01D101F038FA1A000025303AAA46EB
:1052E000092A01D901F06DF9250043465446884644
:1052F0008246A1000C1918786400A4180200591CF9
:10530000303A0B00092AF4D9079103004146504670
:10531000A2462C0074E71293002901D001F02EFA66
:10532000574B1993A30601D500F09AFEE30601D569
:1053300000F09AFD630601D400F096FD0F9B1A88D9
:105340000C92002204330D920F93E30701D400F076
:1053500076FD0C990D9A0B0013431A000223002AC4
:1053600008D030201EA908704825684640190078EA
:105370001C4348700021884616A8C1775146013168
:1053800000D1E6E08021200088430990002A00D067
:10539000E3E05246002A01D000F038FC002B01D097
:1053A00000F00CFD012032AB20400E90119308D08C
:1053B0002723302128AAD15416AA9446483363449F
:1053C000119353460E9A0893924500DA08920023EF
:1053D00013934346002B02D0089B0133089302230A
:1053E000099A1A40914602D0089B023308938423FD
:1053F000099A1A40109200D007E20B9B089A9C1A57
:10540000002C00DC01E21F49BA687B688846102C3A
:1054100021DD310010255E4603E0103C0831102CE0
:1054200017DD40461032013308604D60BA607B6082
:10543000072BF2DD3A003100069804F001FB00284A
:1054400001D000F0CFFC103CBA687B6832A9102C68
:10545000E7DCB3460E00414674600133A4183160A6
:10546000BC607B60072B01DD00F0AEFC16ABDB7F80
:1054700008369846CAE1C046FFDFFFFFA4E50000FA
:105480002CE700004CE700000022079D303BA846B7
:105490000B921A0008942C005546824640468846D6
:1054A0001100002293009A18037852008A181900FC
:1054B0000134303920000929F4D907945046089C5A
:1054C0000B924146AA469BE60F9A1293136820213D
:1054D00008936B465B181B7828AD2B70002316A928
:1054E000CB77130004330F930023099498460133BC
:1054F00008930E93002311959A4613936FE7129326
:10550000002901D001F04DF90F9AA30601D500F052
:105510005AFDE30601D500F0ABFC630601D400F0B0
:10552000A7FC0021535E0C930432DB170D930F92FE
:10553000002B01DA00F0B2FD0C990D9A08005146DB
:1055400016ABDB7F1043984602000123013100D0E7
:1055500018E7002A00D15AE30994012B01D100F089
:1055600006FC022B00D080E3199C0F20A146B44614
:1055700032AB19000C9A0D9B04004D4614402C5D73
:105580001E07150901392E430C701C092300340035
:1055900032001C43F0D10C920D9332AB5B1A119187
:1055A00066460E930DE763461C43079B1B7824E673
:1055B000079B1B786C2B01D100F08CFE102214434A
:1055C0001BE6002901D001F0D5F8A30601D500F0B3
:1055D00076FEE30600D510E1630600D40DE16946CE
:1055E0000F9B098D1A680433089211800F93C9E547
:1055F0000F9930220B680C9300230D9302331C4348
:105600001EAB1A7048325A700B0004330F93C14B13
:10561000129219930C9A0223ACE64B461C43079B4B
:105620001B78EAE512930F9B16A91D1D1B681A0033
:1056300011930023CB77002A01D100F001FF5346DC
:10564000013301D100F064FE524600211198FFF7AA
:105650008DF9002801D100F078FF119BC31A1A00C0
:105660000E93DB43DB171A4016ABDB7F089298469C
:1056700000230F9509949A461393AAE608231C4326
:10568000079B1B78B9E5129310231C43A30601D591
:1056900000F0A7FCE30600D5EEE3630600D4EBE3DD
:1056A0000F9B1A880C92002204330D920F930C9AD0
:1056B00000235FE6129310231C43A30601D500F0DC
:1056C000BAFCE30600D5DAE3630600D4D7E30F9B08
:1056D0001A880C92002204330D920F930C9A012326
:1056E00048E61293002901D001F057F88A4B19932C
:1056F00018E601231C43079B1B787EE580231C438F
:10570000079B1B7879E5079B1B78002800D074E580
:105710000121203071E51293002901D001F039F800
:1057200007220F9B07339343013294469C44624601
:105730000F921A6816925B6801221593159B169DAD
:105740005B005B0898465242744B2800414607F0C4
:10575000C3F9002801D000F0B4FC01226F4B524283
:105760002800414604F070FC002801D000F0A9FC9C
:10577000002200231698159904F05CFC002801D043
:1057800000F055FD16ABDB7F9846129B472B01DDE1
:1057900000F0B4FD624B119380239C437D3B089342
:1057A0000E93002309949A46139312E60F9B1A1D39
:1057B0001B680B93002B00DA78E5079B0F921B7890
:1057C0001BE51293002901D000F0CCFF10231C43ED
:1057D0009AE6129371E7129358E71293002901D0C9
:1057E00000F0D3FF129B002B00D18DE128AD2B7070
:1057F000002316AAD377099478E60F9A0A991368BA
:105800001960130004330F93BCE4BC684346002BBB
:105810000FD016AA1F23944663443360012373609C
:105820007B6801340133BC607B60072B00DD03E241
:1058300008364B46002B0CD01EAB3360022373603E
:105840007B6802340133BC607B60072B00DDFDE127
:105850000836109B802B00D173E153460E9A9D1A97
:10586000002D32DD2F4A7B689146102D22DD10225B
:10587000924622005C4603E0103D0836102D17DDED
:10588000494631605146103201337160BA607B6025
:10589000072BF1DD3A002100069804F0D1F800282A
:1058A00000D08AE1103DBA687B6832AE102DE7DC8B
:1058B000A34614004A466419013332607560BC6027
:1058C0007B60072B00DDADE10836099BDB0500D5C9
:1058D000BEE0119B33600E9B9C4673607B68644402
:1058E0000133BC607B60072B00DDA6E00836099B16
:1058F0005B074AD50B9B089A9D1A002D45DD0A4A85
:105900007B689046102D2FDD1022914622005C46C8
:1059100010E0C0462CE7000018E70000FFFFEF7F13
:1059200008E700005CE700004CE70000103D083687
:10593000102D17DDD14910323160494601337160B5
:10594000BA607B60072BF1DD3A002100069804F075
:1059500077F8002800D030E1103DBA687B6832AE9D
:10596000102DE7DCA346140042466419013324C617
:10597000BC607B60072B08DD3A005946069804F0AE
:105980005FF8002800D03FE1BC680B9B08998B4270
:1059900000DA0B000A9A94469C4463460A93002C52
:1059A00000D029E1002332AE7B60FFF7EBFB149BB4
:1059B000012B00DC03E1119B013433600123736090
:1059C0007B68BC6001337B60072B00DDEFE20836AB
:1059D000189A01333260179A98469446644472606C
:1059E000BC607B60072B00DD18E308360022002333
:1059F0001698159904F018FB002800D0F4E1119DC9
:105A0000149B0135013B35607360E41801239C460B
:105A1000E0444346BC607B60072B00DDE0E00836D5
:105A200021AB33601A9B9C46736043466444013348
:105A3000BC607B60072B00DC58E73A0059460698AB
:105A400003F0FEFF002800D0DEE0BC6832AE4EE777
:105A5000129B652BABDD002200231698159904F0EC
:105A6000E3FA002800D134E1854B0134336001238F
:105A700073607B68BC6001337B60072B00DDDCE377
:105A800008361F9B149A934203DB099BDB0700D463
:105A9000B7E3189BBA683360179B9C4673607B68BA
:105AA000624401331400BA607B60072B01DD00F013
:105AB00019FC0836149B5D1E002D00DC17E7714AA7
:105AC0007B689146102D00DCC3E110229046220035
:105AD0004C46D94604E00836103D102D00DC7CE32E
:105AE00041461032013334607160BA607B60072B2D
:105AF000F1DD3A004946069803F0A2FF00280BD1D9
:105B0000BA687B6832AEE7E7BB68D946002B01D0A4
:105B100000F04CFD00237B604B465B6EDB070DD431
:105B20004B469B899A0505D55B0601D4FFF78DFB93
:105B3000FFF788FB4B46986DFEF78AFE4B469B8924
:105B4000F2E70B9B089A9D1A002D00DC85E64D4A72
:105B50007B689146102D24DD1022210090465C4682
:105B600032004E4603E0103D0832102D15DD404650
:105B70001031013316605060B9607B60072BF2DD95
:105B80003A002100069803F05BFF002815D1103D74
:105B9000B9687B6832AA102DE9DCA346B1460C0037
:105BA00016004A466419013332607560BC607B6040
:105BB000072B00DD63E208364FE6A146ACE7012380
:105BC000099A134200D0F6E673607B68119A01339C
:105BD00001343260BC6098467B60072B00DC1EE716
:105BE0003A005946069803F02BFF00280CD17B6839
:105BF000BC68984632AE13E73A005946069803F05F
:105C00001FFF002800D1CDE6D94685E7099C012B6E
:105C100000D148E1022B23D10994002300240C93E6
:105C20000D94A1E43A005946069803F009FF0028B4
:105C3000EAD1BC6832AE48E63A005946069803F00D
:105C4000FFFE0028E0D1BC6832AEF2E53A005946CA
:105C5000069803F0F5FE0028D6D1BC6832AEF8E510
:105C60000994002300240C930D940C980D9953462D
:105C700032AA91460893B24607E0C0464CE70000BE
:105C800048E700005CE70000A1464A0794464B46FF
:105C900065465C1EC6080723CA08354311002A0062
:105CA00003403033237028000A43EDD10C900D914E
:105CB000089956468A4609994A461194C90700D55B
:105CC000E0E032AB1B1B0E93FFF77BFB079CFFF75B
:105CD0007DFA1F98002800DCB9E2139A149913008A
:105CE00090468B4200DD88464346002B0CDD119B1D
:105CF00044443360434673607B68BC6001337B601F
:105D0000072B00DD89E308364346DB434246DB17B9
:105D10001340139AD31A9846002B00DCEBE0102BAB
:105D200001DC00F0D9FCDC4A7B68914610224D462C
:105D3000924622004446D84604E00836103C102C17
:105D400000DCBFE051461032013335607160BA604B
:105D50007B60072BF1DD3A004146069803F070FEA8
:105D6000002800D0B6E3BA687B6832AEE6E70D9B48
:105D7000002B00D192E00C9C0D9D32ABB1461E0071
:105D8000200029000A22002304F0B6F9013E303237
:105D900032700023200029000A2204F0ADF903002C
:105DA00004000D000B43EBD1320032AB9B1A11966D
:105DB0000C940D954E460E93FFF703FB00230E93B4
:105DC00032AB1193FFF7FDFA3A005946069803F0FB
:105DD00037FE002800D017E716ABDB7FBC6898467B
